{
  "contractName": "PLCRFactory",
  "abi": [
    {
      "constant": true,
      "inputs": [],
      "name": "canonizedPLCR",
      "outputs": [
        {
          "name": "",
          "type": "address"
        }
      ],
      "payable": false,
      "stateMutability": "view",
      "type": "function"
    },
    {
      "constant": true,
      "inputs": [],
      "name": "proxyFactory",
      "outputs": [
        {
          "name": "",
          "type": "address"
        }
      ],
      "payable": false,
      "stateMutability": "view",
      "type": "function"
    },
    {
      "inputs": [],
      "payable": false,
      "stateMutability": "nonpayable",
      "type": "constructor"
    },
    {
      "anonymous": false,
      "inputs": [
        {
          "indexed": false,
          "name": "creator",
          "type": "address"
        },
        {
          "indexed": false,
          "name": "token",
          "type": "address"
        },
        {
          "indexed": false,
          "name": "plcr",
          "type": "address"
        }
      ],
      "name": "newPLCR",
      "type": "event"
    },
    {
      "constant": false,
      "inputs": [
        {
          "name": "_token",
          "type": "address"
        }
      ],
      "name": "newPLCRBYOToken",
      "outputs": [
        {
          "name": "",
          "type": "address"
        }
      ],
      "payable": false,
      "stateMutability": "nonpayable",
      "type": "function"
    },
    {
      "constant": false,
      "inputs": [
        {
          "name": "_supply",
          "type": "uint256"
        },
        {
          "name": "_name",
          "type": "string"
        },
        {
          "name": "_decimals",
          "type": "uint8"
        },
        {
          "name": "_symbol",
          "type": "string"
        }
      ],
      "name": "newPLCRWithToken",
      "outputs": [
        {
          "name": "",
          "type": "address"
        }
      ],
      "payable": false,
      "stateMutability": "nonpayable",
      "type": "function"
    }
  ],
  "bytecode": "0x608060405234801561001057600080fd5b506100196100df565b604051809103906000f080158015610035573d6000803e3d6000fd5b50600160006101000a81548173ffffffffffffffffffffffffffffffffffffffff021916908373ffffffffffffffffffffffffffffffffffffffff16021790555061007e6100ef565b604051809103906000f08015801561009a573d6000803e3d6000fd5b506000806101000a81548173ffffffffffffffffffffffffffffffffffffffff021916908373ffffffffffffffffffffffffffffffffffffffff1602179055506100ff565b604051612e7a806118b383390190565b6040516104878061472d83390190565b6117a58061010e6000396000f300608060405260043610610062576000357c0100000000000000000000000000000000000000000000000000000000900463ffffffff1680635ad22eb314610067578063bf6c4de9146100be578063c10f1a75146101c4578063d5b8169c1461021b575b600080fd5b34801561007357600080fd5b5061007c61029e565b604051808273ffffffffffffffffffffffffffffffffffffffff1673ffffffffffffffffffffffffffffffffffffffff16815260200191505060405180910390f35b3480156100ca57600080fd5b5061018260048036038101908080359060200190929190803590602001908201803590602001908080601f0160208091040260200160405190810160405280939291908181526020018383808284378201915050505050509192919290803560ff169060200190929190803590602001908201803590602001908080601f01602080910402602001604051908101604052809392919081815260200183838082843782019150505050505091929192905050506102c4565b604051808273ffffffffffffffffffffffffffffffffffffffff1673ffffffffffffffffffffffffffffffffffffffff16815260200191505060405180910390f35b3480156101d057600080fd5b506101d961077c565b604051808273ffffffffffffffffffffffffffffffffffffffff1673ffffffffffffffffffffffffffffffffffffffff16815260200191505060405180910390f35b34801561022757600080fd5b5061025c600480360381019080803573ffffffffffffffffffffffffffffffffffffffff1690602001909291905050506107a1565b604051808273ffffffffffffffffffffffffffffffffffffffff1673ffffffffffffffffffffffffffffffffffffffff16815260200191505060405180910390f35b600160009054906101000a900473ffffffffffffffffffffffffffffffffffffffff1681565b6000806000868686866102d5610a5a565b80858152602001806020018460ff1660ff16815260200180602001838103835286818151815260200191508051906020019080838360005b8381101561032857808201518184015260208101905061030d565b50505050905090810190601f1680156103555780820380516001836020036101000a031916815260200191505b50838103825284818151815260200191508051906020019080838360005b8381101561038e578082015181840152602081019050610373565b50505050905090810190601f1680156103bb5780820380516001836020036101000a031916815260200191505b509650505050505050604051809103906000f0801580156103e0573d6000803e3d6000fd5b5091508173ffffffffffffffffffffffffffffffffffffffff1663a9059cbb33896040518363ffffffff167c0100000000000000000000000000000000000000000000000000000000028152600401808373ffffffffffffffffffffffffffffffffffffffff1673ffffffffffffffffffffffffffffffffffffffff16815260200182815260200192505050602060405180830381600087803b15801561048657600080fd5b505af115801561049a573d6000803e3d6000fd5b505050506040513d60208110156104b057600080fd5b8101908080519060200190929190505050506000809054906101000a900473ffffffffffffffffffffffffffffffffffffffff1673ffffffffffffffffffffffffffffffffffffffff166361b69abd600160009054906101000a900473ffffffffffffffffffffffffffffffffffffffff166040518263ffffffff167c0100000000000000000000000000000000000000000000000000000000028152600401808273ffffffffffffffffffffffffffffffffffffffff1673ffffffffffffffffffffffffffffffffffffffff1681526020018060200182810382526000815260200160200192505050602060405180830381600087803b1580156105b457600080fd5b505af11580156105c8573d6000803e3d6000fd5b505050506040513d60208110156105de57600080fd5b810190808051906020019092919050505090508073ffffffffffffffffffffffffffffffffffffffff166319ab453c836040518263ffffffff167c0100000000000000000000000000000000000000000000000000000000028152600401808273ffffffffffffffffffffffffffffffffffffffff1673ffffffffffffffffffffffffffffffffffffffff168152602001915050600060405180830381600087803b15801561068c57600080fd5b505af11580156106a0573d6000803e3d6000fd5b505050507f8e8268f738322382d18bd4348386011274749c84683d2f667c7a21982a7d4460338383604051808473ffffffffffffffffffffffffffffffffffffffff1673ffffffffffffffffffffffffffffffffffffffff1681526020018373ffffffffffffffffffffffffffffffffffffffff1673ffffffffffffffffffffffffffffffffffffffff1681526020018273ffffffffffffffffffffffffffffffffffffffff1673ffffffffffffffffffffffffffffffffffffffff168152602001935050505060405180910390a18092505050949350505050565b6000809054906101000a900473ffffffffffffffffffffffffffffffffffffffff1681565b6000806000809054906101000a900473ffffffffffffffffffffffffffffffffffffffff1673ffffffffffffffffffffffffffffffffffffffff166361b69abd600160009054906101000a900473ffffffffffffffffffffffffffffffffffffffff166040518263ffffffff167c0100000000000000000000000000000000000000000000000000000000028152600401808273ffffffffffffffffffffffffffffffffffffffff1673ffffffffffffffffffffffffffffffffffffffff1681526020018060200182810382526000815260200160200192505050602060405180830381600087803b15801561089657600080fd5b505af11580156108aa573d6000803e3d6000fd5b505050506040513d60208110156108c057600080fd5b810190808051906020019092919050505090508073ffffffffffffffffffffffffffffffffffffffff166319ab453c846040518263ffffffff167c0100000000000000000000000000000000000000000000000000000000028152600401808273ffffffffffffffffffffffffffffffffffffffff1673ffffffffffffffffffffffffffffffffffffffff168152602001915050600060405180830381600087803b15801561096e57600080fd5b505af1158015610982573d6000803e3d6000fd5b505050507f8e8268f738322382d18bd4348386011274749c84683d2f667c7a21982a7d4460338483604051808473ffffffffffffffffffffffffffffffffffffffff1673ffffffffffffffffffffffffffffffffffffffff1681526020018373ffffffffffffffffffffffffffffffffffffffff1673ffffffffffffffffffffffffffffffffffffffff1681526020018273ffffffffffffffffffffffffffffffffffffffff1673ffffffffffffffffffffffffffffffffffffffff168152602001935050505060405180910390a180915050919050565b604051610d0f80610a6b833901905600608060405234801561001057600080fd5b50604051610d0f380380610d0f8339810180604052810190808051906020019092919080518201929190602001805190602001909291908051820192919050505083600460003373ffffffffffffffffffffffffffffffffffffffff1673ffffffffffffffffffffffffffffffffffffffff168152602001908152602001600020819055508360008190555082600190805190602001906100b29291906100ee565b5081600260006101000a81548160ff021916908360ff16021790555080600390805190602001906100e49291906100ee565b5050505050610193565b828054600181600116156101000203166002900490600052602060002090601f016020900481019282601f1061012f57805160ff191683800117855561015d565b8280016001018555821561015d579182015b8281111561015c578251825591602001919060010190610141565b5b50905061016a919061016e565b5090565b61019091905b8082111561018c576000816000905550600101610174565b5090565b90565b610b6d806101a26000396000f300608060405260043610610099576000357c0100000000000000000000000000000000000000000000000000000000900463ffffffff16806306fdde031461009e578063095ea7b31461012e57806318160ddd1461019357806323b872dd146101be578063313ce5671461024357806370a082311461027457806395d89b41146102cb578063a9059cbb1461035b578063dd62ed3e146103c0575b600080fd5b3480156100aa57600080fd5b506100b3610437565b6040518080602001828103825283818151815260200191508051906020019080838360005b838110156100f35780820151818401526020810190506100d8565b50505050905090810190601f1680156101205780820380516001836020036101000a031916815260200191505b509250505060405180910390f35b34801561013a57600080fd5b50610179600480360381019080803573ffffffffffffffffffffffffffffffffffffffff169060200190929190803590602001909291905050506104d5565b604051808215151515815260200191505060405180910390f35b34801561019f57600080fd5b506101a86105c7565b6040518082815260200191505060405180910390f35b3480156101ca57600080fd5b50610229600480360381019080803573ffffffffffffffffffffffffffffffffffffffff169060200190929190803573ffffffffffffffffffffffffffffffffffffffff169060200190929190803590602001909291905050506105cd565b604051808215151515815260200191505060405180910390f35b34801561024f57600080fd5b50610258610867565b604051808260ff1660ff16815260200191505060405180910390f35b34801561028057600080fd5b506102b5600480360381019080803573ffffffffffffffffffffffffffffffffffffffff16906020019092919050505061087a565b6040518082815260200191505060405180910390f35b3480156102d757600080fd5b506102e06108c3565b6040518080602001828103825283818151815260200191508051906020019080838360005b83811015610320578082015181840152602081019050610305565b50505050905090810190601f16801561034d5780820380516001836020036101000a031916815260200191505b509250505060405180910390f35b34801561036757600080fd5b506103a6600480360381019080803573ffffffffffffffffffffffffffffffffffffffff16906020019092919080359060200190929190505050610961565b604051808215151515815260200191505060405180910390f35b3480156103cc57600080fd5b50610421600480360381019080803573ffffffffffffffffffffffffffffffffffffffff169060200190929190803573ffffffffffffffffffffffffffffffffffffffff169060200190929190505050610aba565b6040518082815260200191505060405180910390f35b60018054600181600116156101000203166002900480601f0160208091040260200160405190810160405280929190818152602001828054600181600116156101000203166002900480156104cd5780601f106104a2576101008083540402835291602001916104cd565b820191906000526020600020905b8154815290600101906020018083116104b057829003601f168201915b505050505081565b600081600560003373ffffffffffffffffffffffffffffffffffffffff1673ffffffffffffffffffffffffffffffffffffffff16815260200190815260200160002060008573ffffffffffffffffffffffffffffffffffffffff1673ffffffffffffffffffffffffffffffffffffffff168152602001908152602001600020819055508273ffffffffffffffffffffffffffffffffffffffff163373ffffffffffffffffffffffffffffffffffffffff167f8c5be1e5ebec7d5bd14f71427d1e84f3dd0314c0f7b2291e5b200ac8c7c3b925846040518082815260200191505060405180910390a36001905092915050565b60005481565b600080600560008673ffffffffffffffffffffffffffffffffffffffff1673ffffffffffffffffffffffffffffffffffffffff16815260200190815260200160002060003373ffffffffffffffffffffffffffffffffffffffff1673ffffffffffffffffffffffffffffffffffffffff16815260200190815260200160002054905082600460008773ffffffffffffffffffffffffffffffffffffffff1673ffffffffffffffffffffffffffffffffffffffff168152602001908152602001600020541015801561069e5750828110155b15156106a957600080fd5b82600460008673ffffffffffffffffffffffffffffffffffffffff1673ffffffffffffffffffffffffffffffffffffffff1681526020019081526020016000206000828254019250508190555082600460008773ffffffffffffffffffffffffffffffffffffffff1673ffffffffffffffffffffffffffffffffffffffff168152602001908152602001600020600082825403925050819055507fffffffffffffffffffffffffffffffffffffffffffffffffffffffffffffffff8110156107f65782600560008773ffffffffffffffffffffffffffffffffffffffff1673ffffffffffffffffffffffffffffffffffffffff16815260200190815260200160002060003373ffffffffffffffffffffffffffffffffffffffff1673ffffffffffffffffffffffffffffffffffffffff168152602001908152602001600020600082825403925050819055505b8373ffffffffffffffffffffffffffffffffffffffff168573ffffffffffffffffffffffffffffffffffffffff167fddf252ad1be2c89b69c2b068fc378daa952ba7f163c4a11628f55a4df523b3ef856040518082815260200191505060405180910390a360019150509392505050565b600260009054906101000a900460ff1681565b6000600460008373ffffffffffffffffffffffffffffffffffffffff1673ffffffffffffffffffffffffffffffffffffffff168152602001908152602001600020549050919050565b60038054600181600116156101000203166002900480601f0160208091040260200160405190810160405280929190818152602001828054600181600116156101000203166002900480156109595780601f1061092e57610100808354040283529160200191610959565b820191906000526020600020905b81548152906001019060200180831161093c57829003601f168201915b505050505081565b600081600460003373ffffffffffffffffffffffffffffffffffffffff1673ffffffffffffffffffffffffffffffffffffffff16815260200190815260200160002054101515156109b157600080fd5b81600460003373ffffffffffffffffffffffffffffffffffffffff1673ffffffffffffffffffffffffffffffffffffffff1681526020019081526020016000206000828254039250508190555081600460008573ffffffffffffffffffffffffffffffffffffffff1673ffffffffffffffffffffffffffffffffffffffff168152602001908152602001600020600082825401925050819055508273ffffffffffffffffffffffffffffffffffffffff163373ffffffffffffffffffffffffffffffffffffffff167fddf252ad1be2c89b69c2b068fc378daa952ba7f163c4a11628f55a4df523b3ef846040518082815260200191505060405180910390a36001905092915050565b6000600560008473ffffffffffffffffffffffffffffffffffffffff1673ffffffffffffffffffffffffffffffffffffffff16815260200190815260200160002060008373ffffffffffffffffffffffffffffffffffffffff1673ffffffffffffffffffffffffffffffffffffffff168152602001908152602001600020549050929150505600a165627a7a72305820d19770f578ba5785f85dac82ebd68fefc5a8debe253116fe16fc8630a100cba40029a165627a7a723058206409a0bea83c58467f0710b55ceb002c452ff09f508c3ee0e75e4a3f512bc7f40029608060405234801561001057600080fd5b50612e5a806100206000396000f300608060405260043610610196576000357c0100000000000000000000000000000000000000000000000000000000900463ffffffff168063053e71a61461019b5780630c03fbd7146101dc57806319ab453c1461023d5780632173a10f146102805780632c052031146102ab57806332ed3d60146103165780633b9302941461036b5780633ec36b99146103c2578063427fa1d214610445578063441c77c01461049c57806349403183146104e15780636148fed5146105265780636b2d95d4146105835780636cbf9c5e146105da5780637f97e836146106295780638090f92e1461068e578063819b0293146106f957806388d21ff31461077257806397508f36146107b757806397603560146107e2578063a1103f371461080f578063a25236fe14610878578063a4439dc5146108a5578063aa7ca464146108ea578063b11d8bb81461094f578063bb11ed7e14610990578063d1382092146109f6578063d901402b14610a57578063d9548e5314610ac0578063e7b1d43c14610b05578063ee68483014610b32578063fc0c546a14610b77575b600080fd5b3480156101a757600080fd5b506101c660048036038101908080359060200190929190505050610bce565b6040518082815260200191505060405180910390f35b3480156101e857600080fd5b50610227600480360381019080803573ffffffffffffffffffffffffffffffffffffffff16906020019092919080359060200190929190505050610c2f565b6040518082815260200191505060405180910390f35b34801561024957600080fd5b5061027e600480360381019080803573ffffffffffffffffffffffffffffffffffffffff169060200190929190505050610dd7565b005b34801561028c57600080fd5b50610295610eb8565b6040518082815260200191505060405180910390f35b3480156102b757600080fd5b50610300600480360381019080803573ffffffffffffffffffffffffffffffffffffffff1690602001909291908035906020019092919080359060200190929190505050610ebd565b6040518082815260200191505060405180910390f35b34801561032257600080fd5b506103556004803603810190808035906020019092919080359060200190929190803590602001909291905050506110fc565b6040518082815260200191505060405180910390f35b34801561037757600080fd5b506103ac600480360381019080803573ffffffffffffffffffffffffffffffffffffffff169060200190929190505050611219565b6040518082815260200191505060405180910390f35b3480156103ce57600080fd5b50610443600480360381019080803590602001908201803590602001919091929391929390803590602001908201803590602001919091929391929390803590602001908201803590602001919091929391929390803590602001908201803590602001919091929391929390505050611231565b005b34801561045157600080fd5b50610486600480360381019080803573ffffffffffffffffffffffffffffffffffffffff1690602001909291905050506112f7565b6040518082815260200191505060405180910390f35b3480156104a857600080fd5b506104c7600480360381019080803590602001909291905050506113ef565b604051808215151515815260200191505060405180910390f35b3480156104ed57600080fd5b5061050c6004803603810190808035906020019092919050505061143e565b604051808215151515815260200191505060405180910390f35b34801561053257600080fd5b50610551600480360381019080803590602001909291905050506114d1565b604051808681526020018581526020018481526020018381526020018281526020019550505050505060405180910390f35b34801561058f57600080fd5b506105c4600480360381019080803573ffffffffffffffffffffffffffffffffffffffff169060200190929190505050611507565b6040518082815260200191505060405180910390f35b3480156105e657600080fd5b506106276004803603810190808035906020019092919080356000191690602001909291908035906020019092919080359060200190929190505050611522565b005b34801561063557600080fd5b50610674600480360381019080803573ffffffffffffffffffffffffffffffffffffffff16906020019092919080359060200190929190505050611cb5565b604051808215151515815260200191505060405180910390f35b34801561069a57600080fd5b506106f7600480360381019080803590602001908201803590602001919091929391929390803590602001908201803590602001919091929391929390803590602001908201803590602001919091929391929390505050611d34565b005b34801561070557600080fd5b506107586004803603810190808035906020019092919080359060200190929190803573ffffffffffffffffffffffffffffffffffffffff16906020019092919080359060200190929190505050611dcb565b604051808215151515815260200191505060405180910390f35b34801561077e57600080fd5b5061079d60048036038101908080359060200190929190505050611e0f565b604051808215151515815260200191505060405180910390f35b3480156107c357600080fd5b506107cc611e2a565b6040518082815260200191505060405180910390f35b3480156107ee57600080fd5b5061080d60048036038101908080359060200190929190505050611e30565b005b34801561081b57600080fd5b5061085a600480360381019080803573ffffffffffffffffffffffffffffffffffffffff16906020019092919080359060200190929190505050612065565b60405180826000191660001916815260200191505060405180910390f35b34801561088457600080fd5b506108a360048036038101908080359060200190929190505050612134565b005b3480156108b157600080fd5b506108d060048036038101908080359060200190929190505050612417565b604051808215151515815260200191505060405180910390f35b3480156108f657600080fd5b50610935600480360381019080803573ffffffffffffffffffffffffffffffffffffffff16906020019092919080359060200190929190505050612454565b604051808215151515815260200191505060405180910390f35b34801561095b57600080fd5b5061098e6004803603810190808035906020019092919080359060200190929190803590602001909291905050506124d3565b005b34801561099c57600080fd5b506109f4600480360381019080803590602001908201803590602001908080602002602001604051908101604052809392919081815260200183836020028082843782019150505050505091929192905050506128f5565b005b348015610a0257600080fd5b50610a41600480360381019080803573ffffffffffffffffffffffffffffffffffffffff16906020019092919080359060200190929190505050612935565b6040518082815260200191505060405180910390f35b348015610a6357600080fd5b50610aa2600480360381019080803573ffffffffffffffffffffffffffffffffffffffff16906020019092919080359060200190929190505050612a3a565b60405180826000191660001916815260200191505060405180910390f35b348015610acc57600080fd5b50610aeb60048036038101908080359060200190929190505050612b42565b604051808215151515815260200191505060405180910390f35b348015610b1157600080fd5b50610b3060048036038101908080359060200190929190505050612b4e565b005b348015610b3e57600080fd5b50610b5d60048036038101908080359060200190929190505050612d65565b604051808215151515815260200191505060405180910390f35b348015610b8357600080fd5b50610b8c612da1565b604051808273ffffffffffffffffffffffffffffffffffffffff1673ffffffffffffffffffffffffffffffffffffffff16815260200191505060405180910390f35b6000610bd982612d65565b1515610be457600080fd5b610bed8261143e565b15610c105760016000838152602001908152602001600020600301549050610c2a565b600160008381526020019081526020016000206004015490505b919050565b6000806000610c3d84612d65565b1515610c4857600080fd5b6001600085815260200190815260200160002060060160008673ffffffffffffffffffffffffffffffffffffffff1673ffffffffffffffffffffffffffffffffffffffff16815260200190815260200160002060009054906101000a900460ff161515610cb457600080fd5b610cbd8461143e565b610cc8576000610ccb565b60015b60ff1691506001600085815260200190815260200160002060070160008673ffffffffffffffffffffffffffffffffffffffff1673ffffffffffffffffffffffffffffffffffffffff1681526020019081526020016000205490508181141515610dc3576040517f08c379a00000000000000000000000000000000000000000000000000000000081526004018080602001828103825260278152602001807f566f7465722072657665616c65642c20627574206e6f7420696e20746865206d81526020017f616a6f726974790000000000000000000000000000000000000000000000000081525060400191505060405180910390fd5b610dcd8585612935565b9250505092915050565b600073ffffffffffffffffffffffffffffffffffffffff168173ffffffffffffffffffffffffffffffffffffffff1614158015610e625750600073ffffffffffffffffffffffffffffffffffffffff16600560009054906101000a900473ffffffffffffffffffffffffffffffffffffffff1673ffffffffffffffffffffffffffffffffffffffff16145b1515610e6d57600080fd5b80600560006101000a81548173ffffffffffffffffffffffffffffffffffffffff021916908373ffffffffffffffffffffffffffffffffffffffff1602179055506000808190555050565b600081565b6000806000610ecb866112f7565b9150610ed78683612935565b90505b6000821415156110ef57610eee8683612935565b90508481111515610ffa5783821415610ff257600360008773ffffffffffffffffffffffffffffffffffffffff1673ffffffffffffffffffffffffffffffffffffffff16815260200190815260200160002073__DLL___________________________________6330fe0a0a9091846040518363ffffffff167c0100000000000000000000000000000000000000000000000000000000028152600401808381526020018281526020019250505060206040518083038186803b158015610fb457600080fd5b505af4158015610fc8573d6000803e3d6000fd5b505050506040513d6020811015610fde57600080fd5b810190808051906020019092919050505091505b8192506110f3565b600360008773ffffffffffffffffffffffffffffffffffffffff1673ffffffffffffffffffffffffffffffffffffffff16815260200190815260200160002073__DLL___________________________________6330fe0a0a9091846040518363ffffffff167c0100000000000000000000000000000000000000000000000000000000028152600401808381526020018281526020019250505060206040518083038186803b1580156110ad57600080fd5b505af41580156110c1573d6000803e3d6000fd5b505050506040513d60208110156110d757600080fd5b81019080805190602001909291905050509150610eda565b8192505b50509392505050565b60008060006001600054016000819055506111208542612dc790919063ffffffff16565b91506111358483612dc790919063ffffffff16565b905060a060405190810160405280838152602001828152602001878152602001600081526020016000815250600160008054815260200190815260200160002060008201518160000155602082015181600101556040820151816002015560608201518160030155608082015181600401559050503373ffffffffffffffffffffffffffffffffffffffff166000547f404f1f1c229d9eb2a949e7584da6ffde9d059ef2169f487ca815434cce0640d088858560405180848152602001838152602001828152602001935050505060405180910390a3600054925050509392505050565b60026020528060005260406000206000915090505481565b6000868690508989905014151561124757600080fd5b848490508989905014151561125b57600080fd5b828290508989905014151561126f57600080fd5b600090505b888890508110156112ec576112df898983818110151561129057fe5b9050602002013588888481811015156112a557fe5b905060200201356000191687878581811015156112be57fe5b9050602002013586868681811015156112d357fe5b90506020020135611522565b8080600101915050611274565b505050505050505050565b6000600360008373ffffffffffffffffffffffffffffffffffffffff1673ffffffffffffffffffffffffffffffffffffffff16815260200190815260200160002073__DLL___________________________________6330fe0a0a909160006040518363ffffffff167c0100000000000000000000000000000000000000000000000000000000028152600401808381526020018281526020019250505060206040518083038186803b1580156113ad57600080fd5b505af41580156113c1573d6000803e3d6000fd5b505050506040513d60208110156113d757600080fd5b81019080805190602001909291905050509050919050565b60006113fa82611e0f565b151561140557600080fd5b6114246001600084815260200190815260200160002060010154612b42565b158015611437575061143582612417565b155b9050919050565b6000611448612dfe565b61145183612d65565b151561145c57600080fd5b6001600084815260200190815260200160002060a060405190810160405290816000820154815260200160018201548152602001600282015481526020016003820154815260200160048201548152505090508060800151816060015101816040015102816060015160640211915050919050565b60016020528060005260406000206000915090508060000154908060010154908060020154908060030154908060040154905085565b600061151b82611516846112f7565b612935565b9050919050565b600080600061153087612417565b151561153b57600080fd5b84600260003373ffffffffffffffffffffffffffffffffffffffff1673ffffffffffffffffffffffffffffffffffffffff1681526020019081526020016000205410156115e0576115d4600260003373ffffffffffffffffffffffffffffffffffffffff1673ffffffffffffffffffffffffffffffffffffffff1681526020019081526020016000205486612de590919063ffffffff16565b92506115df83612134565b5b84600260003373ffffffffffffffffffffffffffffffffffffffff1673ffffffffffffffffffffffffffffffffffffffff168152602001908152602001600020541015151561162e57600080fd5b6000871415151561163e57600080fd5b600060010286600019161415151561165557600080fd5b600084148061174e5750600360003373ffffffffffffffffffffffffffffffffffffffff1673ffffffffffffffffffffffffffffffffffffffff16815260200190815260200160002073__DLL___________________________________63366a5ba29091866040518363ffffffff167c0100000000000000000000000000000000000000000000000000000000028152600401808381526020018281526020019250505060206040518083038186803b15801561171257600080fd5b505af4158015611726573d6000803e3d6000fd5b505050506040513d602081101561173c57600080fd5b81019080805190602001909291905050505b151561175957600080fd5b600360003373ffffffffffffffffffffffffffffffffffffffff1673ffffffffffffffffffffffffffffffffffffffff16815260200190815260200160002073__DLL___________________________________6307d29ac99091866040518363ffffffff167c0100000000000000000000000000000000000000000000000000000000028152600401808381526020018281526020019250505060206040518083038186803b15801561180c57600080fd5b505af4158015611820573d6000803e3d6000fd5b505050506040513d602081101561183657600080fd5b810190808051906020019092919050505091508682141561194257600360003373ffffffffffffffffffffffffffffffffffffffff1673ffffffffffffffffffffffffffffffffffffffff16815260200190815260200160002073__DLL___________________________________6307d29ac99091896040518363ffffffff167c0100000000000000000000000000000000000000000000000000000000028152600401808381526020018281526020019250505060206040518083038186803b15801561190457600080fd5b505af4158015611918573d6000803e3d6000fd5b505050506040513d602081101561192e57600080fd5b810190808051906020019092919050505091505b61194e84833388611dcb565b151561195957600080fd5b600360003373ffffffffffffffffffffffffffffffffffffffff1673ffffffffffffffffffffffffffffffffffffffff16815260200190815260200160002073__DLL___________________________________639735c51b9091868a866040518563ffffffff167c01000000000000000000000000000000000000000000000000000000000281526004018085815260200184815260200183815260200182815260200194505050505060006040518083038186803b158015611a1c57600080fd5b505af4158015611a30573d6000803e3d6000fd5b50505050611a3e3388612065565b9050600473__AttributeStore________________________63977aa031909183886040518463ffffffff167c010000000000000000000000000000000000000000000000000000000002815260040180848152602001836000191660001916815260200180602001838152602001828103825260098152602001807f6e756d546f6b656e73000000000000000000000000000000000000000000000081525060200194505050505060006040518083038186803b158015611aff57600080fd5b505af4158015611b13573d6000803e3d6000fd5b50505050600473__AttributeStore________________________63977aa03190918389600190046040518463ffffffff167c0100000000000000000000000000000000000000000000000000000000028152600401808481526020018360001916600019168152602001806020018381526020018281038252600a8152602001807f636f6d6d6974486173680000000000000000000000000000000000000000000081525060200194505050505060006040518083038186803b158015611bda57600080fd5b505af4158015611bee573d6000803e3d6000fd5b50505050600180600089815260200190815260200160002060050160003373ffffffffffffffffffffffffffffffffffffffff1673ffffffffffffffffffffffffffffffffffffffff16815260200190815260200160002060006101000a81548160ff0219169083151502179055503373ffffffffffffffffffffffffffffffffffffffff16877fea7979e4280d7e6bffc1c7d83a1ac99f16d02ecc14465ce41016226783b663d7876040518082815260200191505060405180910390a350505050505050565b6000611cc082611e0f565b1515611ccb57600080fd5b6001600083815260200190815260200160002060050160008473ffffffffffffffffffffffffffffffffffffffff1673ffffffffffffffffffffffffffffffffffffffff16815260200190815260200160002060009054906101000a900460ff16905092915050565b60008484905087879050141515611d4a57600080fd5b8282905087879050141515611d5e57600080fd5b600090505b86869050811015611dc257611db58787838181101515611d7f57fe5b905060200201358686848181101515611d9457fe5b905060200201358585858181101515611da957fe5b905060200201356124d3565b8080600101915050611d63565b50505050505050565b6000806000611dda8588612935565b8410159150611de98587612935565b84111580611df75750600086145b9050818015611e035750805b92505050949350505050565b6000808214158015611e2357506000548211155b9050919050565b60005481565b611e4f6001600083815260200190815260200160002060010154612b42565b1515611e5a57600080fd5b600360003373ffffffffffffffffffffffffffffffffffffffff1673ffffffffffffffffffffffffffffffffffffffff16815260200190815260200160002073__DLL___________________________________63366a5ba29091836040518363ffffffff167c0100000000000000000000000000000000000000000000000000000000028152600401808381526020018281526020019250505060206040518083038186803b158015611f0d57600080fd5b505af4158015611f21573d6000803e3d6000fd5b505050506040513d6020811015611f3757600080fd5b81019080805190602001909291905050501515611f5357600080fd5b600360003373ffffffffffffffffffffffffffffffffffffffff1673ffffffffffffffffffffffffffffffffffffffff16815260200190815260200160002073__DLL___________________________________636d900ed09091836040518363ffffffff167c0100000000000000000000000000000000000000000000000000000000028152600401808381526020018281526020019250505060006040518083038186803b15801561200657600080fd5b505af415801561201a573d6000803e3d6000fd5b505050503373ffffffffffffffffffffffffffffffffffffffff16817f402507661c8c8cb90e0a796450b8bdd28b6c516f05279c0cd29e84c344e1699a60405160405180910390a350565b60008282604051602001808373ffffffffffffffffffffffffffffffffffffffff1673ffffffffffffffffffffffffffffffffffffffff166c01000000000000000000000000028152601401828152602001925050506040516020818303038152906040526040518082805190602001908083835b6020831015156120ff57805182526020820191506020810190506020830392506120da565b6001836020036101000a0380198251168184511680821785525050505050509050019150506040518091039020905092915050565b80600560009054906101000a900473ffffffffffffffffffffffffffffffffffffffff1673ffffffffffffffffffffffffffffffffffffffff166370a08231336040518263ffffffff167c0100000000000000000000000000000000000000000000000000000000028152600401808273ffffffffffffffffffffffffffffffffffffffff1673ffffffffffffffffffffffffffffffffffffffff168152602001915050602060405180830381600087803b1580156121f257600080fd5b505af1158015612206573d6000803e3d6000fd5b505050506040513d602081101561221c57600080fd5b81019080805190602001909291905050501015151561223a57600080fd5b80600260003373ffffffffffffffffffffffffffffffffffffffff1673ffffffffffffffffffffffffffffffffffffffff16815260200190815260200160002060008282540192505081905550600560009054906101000a900473ffffffffffffffffffffffffffffffffffffffff1673ffffffffffffffffffffffffffffffffffffffff166323b872dd3330846040518463ffffffff167c0100000000000000000000000000000000000000000000000000000000028152600401808473ffffffffffffffffffffffffffffffffffffffff1673ffffffffffffffffffffffffffffffffffffffff1681526020018373ffffffffffffffffffffffffffffffffffffffff1673ffffffffffffffffffffffffffffffffffffffff1681526020018281526020019350505050602060405180830381600087803b15801561238057600080fd5b505af1158015612394573d6000803e3d6000fd5b505050506040513d60208110156123aa57600080fd5b810190808051906020019092919050505015156123c657600080fd5b3373ffffffffffffffffffffffffffffffffffffffff167ff7aaf024511d9982df8cd0d437c71c30106e6848cd1ba3d288d7a9c0e276aeda826040518082815260200191505060405180910390a250565b600061242282611e0f565b151561242d57600080fd5b61244c6001600084815260200190815260200160002060000154612b42565b159050919050565b600061245f82611e0f565b151561246a57600080fd5b6001600083815260200190815260200160002060060160008473ffffffffffffffffffffffffffffffffffffffff1673ffffffffffffffffffffffffffffffffffffffff16815260200190815260200160002060009054906101000a900460ff16905092915050565b60006124de846113ef565b15156124e957600080fd5b6001600085815260200190815260200160002060050160003373ffffffffffffffffffffffffffffffffffffffff1673ffffffffffffffffffffffffffffffffffffffff16815260200190815260200160002060009054906101000a900460ff16151561255557600080fd5b6001600085815260200190815260200160002060060160003373ffffffffffffffffffffffffffffffffffffffff1673ffffffffffffffffffffffffffffffffffffffff16815260200190815260200160002060009054906101000a900460ff161515156125c257600080fd5b6125cc3385612a3a565b60001916838360405160200180838152602001828152602001925050506040516020818303038152906040526040518082805190602001908083835b60208310151561262d5780518252602082019150602081019050602083039250612608565b6001836020036101000a03801982511681845116808217855250505050505090500191505060405180910390206000191614151561266a57600080fd5b6126743385612935565b905060018314156126a8578060016000868152602001908152602001600020600301600082825401925050819055506126cd565b8060016000868152602001908152602001600020600401600082825401925050819055505b600360003373ffffffffffffffffffffffffffffffffffffffff1673ffffffffffffffffffffffffffffffffffffffff16815260200190815260200160002073__DLL___________________________________636d900ed09091866040518363ffffffff167c0100000000000000000000000000000000000000000000000000000000028152600401808381526020018281526020019250505060006040518083038186803b15801561278057600080fd5b505af4158015612794573d6000803e3d6000fd5b50505050600180600086815260200190815260200160002060060160003373ffffffffffffffffffffffffffffffffffffffff1673ffffffffffffffffffffffffffffffffffffffff16815260200190815260200160002060006101000a81548160ff021916908315150217905550826001600086815260200190815260200160002060070160003373ffffffffffffffffffffffffffffffffffffffff1673ffffffffffffffffffffffffffffffffffffffff168152602001908152602001600020819055503373ffffffffffffffffffffffffffffffffffffffff1683857f9b19aaec524fad29c0ced9b9973a15e3045d7c3be156d71394ab40f0d5f119ff84600160008a815260200190815260200160002060030154600160008b815260200190815260200160002060040154886040518085815260200184815260200183815260200182815260200194505050505060405180910390a450505050565b60008090505b815181101561293157612924828281518110151561291557fe5b90602001906020020151611e30565b80806001019150506128fb565b5050565b6000600473__AttributeStore________________________6350389f5c909161295f8686612065565b6040518363ffffffff167c010000000000000000000000000000000000000000000000000000000002815260040180838152602001826000191660001916815260200180602001828103825260098152602001807f6e756d546f6b656e730000000000000000000000000000000000000000000000815250602001935050505060206040518083038186803b1580156129f757600080fd5b505af4158015612a0b573d6000803e3d6000fd5b505050506040513d6020811015612a2157600080fd5b8101908080519060200190929190505050905092915050565b6000600473__AttributeStore________________________6350389f5c9091612a648686612065565b6040518363ffffffff167c0100000000000000000000000000000000000000000000000000000000028152600401808381526020018260001916600019168152602001806020018281038252600a8152602001807f636f6d6d69744861736800000000000000000000000000000000000000000000815250602001935050505060206040518083038186803b158015612afc57600080fd5b505af4158015612b10573d6000803e3d6000fd5b505050506040513d6020811015612b2657600080fd5b8101908080519060200190929190505050600102905092915050565b60008142119050919050565b6000612baa612b5c33611507565b600260003373ffffffffffffffffffffffffffffffffffffffff1673ffffffffffffffffffffffffffffffffffffffff16815260200190815260200160002054612de590919063ffffffff16565b9050818110151515612bbb57600080fd5b81600260003373ffffffffffffffffffffffffffffffffffffffff1673ffffffffffffffffffffffffffffffffffffffff16815260200190815260200160002060008282540392505081905550600560009054906101000a900473ffffffffffffffffffffffffffffffffffffffff1673ffffffffffffffffffffffffffffffffffffffff1663a9059cbb33846040518363ffffffff167c0100000000000000000000000000000000000000000000000000000000028152600401808373ffffffffffffffffffffffffffffffffffffffff1673ffffffffffffffffffffffffffffffffffffffff16815260200182815260200192505050602060405180830381600087803b158015612ccd57600080fd5b505af1158015612ce1573d6000803e3d6000fd5b505050506040513d6020811015612cf757600080fd5b81019080805190602001909291905050501515612d1357600080fd5b3373ffffffffffffffffffffffffffffffffffffffff167ffaeb7dbb9992397d26ea1944efd40c80b40f702faf69b46c67ad10aba68ccb79836040518082815260200191505060405180910390a25050565b6000612d7082611e0f565b1515612d7b57600080fd5b612d9a6001600084815260200190815260200160002060010154612b42565b9050919050565b600560009054906101000a900473ffffffffffffffffffffffffffffffffffffffff1681565b6000808284019050838110151515612ddb57fe5b8091505092915050565b6000828211151515612df357fe5b818303905092915050565b60a060405190810160405280600081526020016000815260200160008152602001600081526020016000815250905600a165627a7a723058205656a371e067520ed3a1b4203901c3d6afbd3683d61b664e7cfefd5c2d2f893d0029608060405234801561001057600080fd5b50610467806100206000396000f30060806040526004361061004c576000357c0100000000000000000000000000000000000000000000000000000000900463ffffffff16806361b69abd146100515780637b8b82a81461011a575b600080fd5b34801561005d57600080fd5b506100d8600480360381019080803573ffffffffffffffffffffffffffffffffffffffff169060200190929190803590602001908201803590602001908080601f01602080910402602001604051908101604052809392919081815260200183838082843782019150505050505091929192905050506101ad565b604051808273ffffffffffffffffffffffffffffffffffffffff1673ffffffffffffffffffffffffffffffffffffffff16815260200191505060405180910390f35b34801561012657600080fd5b506101ab60048036038101908080359060200190929190803573ffffffffffffffffffffffffffffffffffffffff169060200190929190803590602001908201803590602001908080601f0160208091040260200160405190810160405280939291908181526020018383808284378201915050505050509192919290505050610258565b005b60006101b983836103ad565b90507f3d2489efb661e8b1c3679865db649ca1de61d76a71184a1234de2e55786a6aad8184604051808373ffffffffffffffffffffffffffffffffffffffff1673ffffffffffffffffffffffffffffffffffffffff1681526020018273ffffffffffffffffffffffffffffffffffffffff1673ffffffffffffffffffffffffffffffffffffffff1681526020019250505060405180910390a192915050565b606060008460405190808252806020026020018201604052801561028b5781602001602082028038833980820191505090505b509150600090505b848110156102fa576102a584846103ad565b82828151811015156102b357fe5b9060200190602002019073ffffffffffffffffffffffffffffffffffffffff16908173ffffffffffffffffffffffffffffffffffffffff1681525050806001019050610293565b7fb2985f082ae86fc659eabac0809f572d48e4fab9171c7dc2848b56d7bf3f1072828560405180806020018373ffffffffffffffffffffffffffffffffffffffff1673ffffffffffffffffffffffffffffffffffffffff168152602001828103825284818151815260200191508051906020019060200280838360005b83811015610392578082015181840152602081019050610377565b50505050905001935050505060405180910390a15050505050565b600060405183600b82015276603160008181600b9039f360008080808036809280377360098203527f5af43d828181803e808314602f57f35bfd000000000000000000000000000000602b820152603c816000f09150813b151561041057600080fd5b8251801515156104335760008082602087016000875af1151561043257600080fd5b5b5050929150505600a165627a7a7230582020ccf848c95e851e776669d084a12aeb15afd4efde27bf5bea826da2752c7d2d0029",
  "source": "pragma solidity ^0.4.20;\n\nimport \"tokens/eip20/EIP20.sol\";\nimport \"./PLCRVoting.sol\";\nimport \"./ProxyFactory.sol\";\n\ncontract PLCRFactory {\n\n  event newPLCR(address creator, EIP20 token, PLCRVoting plcr);\n\n  ProxyFactory public proxyFactory;\n  PLCRVoting public canonizedPLCR;\n\n  /// @dev constructor deploys a new canonical PLCRVoting contract and a proxyFactory.\n  constructor() public {\n    canonizedPLCR = new PLCRVoting();\n    proxyFactory = new ProxyFactory();\n  }\n\n  /*\n  @dev deploys and initializes a new PLCRVoting contract that consumes a token at an address\n  supplied by the user.\n  @param _token an EIP20 token to be consumed by the new PLCR contract\n  */\n  function newPLCRBYOToken(EIP20 _token) public returns (PLCRVoting) {\n    PLCRVoting plcr = PLCRVoting(proxyFactory.createProxy(canonizedPLCR, \"\"));\n    plcr.init(_token);\n\n    emit newPLCR(msg.sender, _token, plcr);\n\n    return plcr;\n  }\n  \n  /*\n  @dev deploys and initializes a new PLCRVoting contract and an EIP20 to be consumed by the PLCR's\n  initializer.\n  @param _supply the total number of tokens to mint in the EIP20 contract\n  @param _name the name of the new EIP20 token\n  @param _decimals the decimal precision to be used in rendering balances in the EIP20 token\n  @param _symbol the symbol of the new EIP20 token\n  */\n  function newPLCRWithToken(\n    uint _supply,\n    string _name,\n    uint8 _decimals,\n    string _symbol\n  ) public returns (PLCRVoting) {\n    // Create a new token and give all the tokens to the PLCR creator\n    EIP20 token = new EIP20(_supply, _name, _decimals, _symbol);\n    token.transfer(msg.sender, _supply);\n\n    // Create and initialize a new PLCR contract\n    PLCRVoting plcr = PLCRVoting(proxyFactory.createProxy(canonizedPLCR, \"\"));\n    plcr.init(token);\n\n    emit newPLCR(msg.sender, token, plcr);\n\n    return plcr;\n  }\n}\n\n",
  "sourcePath": "plcr-revival/PLCRFactory.sol",
  "compiler": {
    "name": "solc",
    "version": "0.4.24+commit.e67f0147.Emscripten.clang"
  },
  "schemaVersion": "2.0.0",
  "updatedAt": "2019-05-09T11:42:02.932Z"
}